{
  "contractName": "Ticket",
  "abi": [
    {
      "constant": false,
      "inputs": [
        {
          "name": "_from",
          "type": "address"
        },
        {
          "name": "_value",
          "type": "uint256"
        },
        {
          "name": "_token",
          "type": "address"
        },
        {
          "name": "_extraData",
          "type": "bytes"
        }
      ],
      "name": "receiveApproval",
      "outputs": [
        {
          "name": "",
          "type": "string"
        }
      ],
      "payable": false,
      "stateMutability": "nonpayable",
      "type": "function"
    },
    {
      "constant": false,
      "inputs": [
        {
          "name": "contractAdd",
          "type": "address"
        }
      ],
      "name": "setAddress",
      "outputs": [],
      "payable": false,
      "stateMutability": "nonpayable",
      "type": "function"
    },
    {
      "constant": false,
      "inputs": [],
      "name": "getTicket",
      "outputs": [
        {
          "name": "",
          "type": "string"
        }
      ],
      "payable": true,
      "stateMutability": "payable",
      "type": "function"
    },
    {
      "constant": false,
      "inputs": [],
      "name": "getTicketByToken",
      "outputs": [
        {
          "name": "",
          "type": "string"
        }
      ],
      "payable": false,
      "stateMutability": "nonpayable",
      "type": "function"
    }
  ],
  "bytecode": "0x608060405234801561001057600080fd5b506106d6806100206000396000f300608060405260043610610062576000357c0100000000000000000000000000000000000000000000000000000000900463ffffffff1680638f4ffcb114610067578063c002c4d614610165578063cd99b3a0146101e8578063e30081a014610278575b600080fd5b34801561007357600080fd5b506100ea600480360381019080803573ffffffffffffffffffffffffffffffffffffffff16906020019092919080359060200190929190803573ffffffffffffffffffffffffffffffffffffffff1690602001909291908035906020019082018035906020019190919293919293905050506102bb565b6040518080602001828103825283818151815260200191508051906020019080838360005b8381101561012a57808201518184015260208101905061010f565b50505050905090810190601f1680156101575780820380516001836020036101000a031916815260200191505b509250505060405180910390f35b61016d610498565b6040518080602001828103825283818151815260200191508051906020019080838360005b838110156101ad578082015181840152602081019050610192565b50505050905090810190601f1680156101da5780820380516001836020036101000a031916815260200191505b509250505060405180910390f35b3480156101f457600080fd5b506101fd6104eb565b6040518080602001828103825283818151815260200191508051906020019080838360005b8381101561023d578082015181840152602081019050610222565b50505050905090810190601f16801561026a5780820380516001836020036101000a031916815260200191505b509250505060405180910390f35b34801561028457600080fd5b506102b9600480360381019080803573ffffffffffffffffffffffffffffffffffffffff169060200190929190505050610667565b005b60608373ffffffffffffffffffffffffffffffffffffffff166000809054906101000a900473ffffffffffffffffffffffffffffffffffffffff1673ffffffffffffffffffffffffffffffffffffffff1614151561031857600080fd5b6000809054906101000a900473ffffffffffffffffffffffffffffffffffffffff1673ffffffffffffffffffffffffffffffffffffffff166323b872dd873060646040518463ffffffff167c0100000000000000000000000000000000000000000000000000000000028152600401808473ffffffffffffffffffffffffffffffffffffffff1673ffffffffffffffffffffffffffffffffffffffff1681526020018373ffffffffffffffffffffffffffffffffffffffff1673ffffffffffffffffffffffffffffffffffffffff1681526020018281526020019350505050602060405180830381600087803b15801561041157600080fd5b505af1158015610425573d6000803e3d6000fd5b505050506040513d602081101561043b57600080fd5b8101908080519060200190929190505050151561045757600080fd5b6040805190810160405280600581526020017f6a64313233000000000000000000000000000000000000000000000000000000815250905095945050505050565b606067016345785d8a0000341415156104b057600080fd5b6040805190810160405280600581526020017f6a64313233000000000000000000000000000000000000000000000000000000815250905090565b60606000809054906101000a900473ffffffffffffffffffffffffffffffffffffffff1673ffffffffffffffffffffffffffffffffffffffff166323b872dd333060646040518463ffffffff167c0100000000000000000000000000000000000000000000000000000000028152600401808473ffffffffffffffffffffffffffffffffffffffff1673ffffffffffffffffffffffffffffffffffffffff1681526020018373ffffffffffffffffffffffffffffffffffffffff1673ffffffffffffffffffffffffffffffffffffffff1681526020018281526020019350505050602060405180830381600087803b1580156105e657600080fd5b505af11580156105fa573d6000803e3d6000fd5b505050506040513d602081101561061057600080fd5b8101908080519060200190929190505050151561062c57600080fd5b6040805190810160405280600581526020017f6a64313233000000000000000000000000000000000000000000000000000000815250905090565b806000806101000a81548173ffffffffffffffffffffffffffffffffffffffff021916908373ffffffffffffffffffffffffffffffffffffffff160217905550505600a165627a7a72305820c5d6be063c963ed55f223b7539c49f85c6fdd0bfcf3754755a5e619ed9f2bf980029",
  "source": "pragma solidity ^0.4.18;\nimport \"./TokenDemo.sol\";\n\n\ncontract Ticket is TokenRecipient {\n    TokenDemo myToken;\n\n    function receiveApproval(address _from, uint256 _value, address _token, bytes _extraData) external returns(string) {\n        require(myToken == _token);\n        require(myToken.transferFrom(_from, this, 100));\n        //卖票操作\n        return \"jd123\";\n    }\n\n    //设置合约地址\n    function setAddress(address contractAdd) {\n        myToken = TokenDemo(contractAdd);\n    }\n\n    //用eth买ticket\n    function getTicket() public payable returns (string) {\n        require(msg.value == 0.1 ether);\n        return \"jd123\";\n    }\n\n    //用token买ticket\n    function getTicketByToken() public  returns (string) {\n        require(myToken.transferFrom(msg.sender, this, 100));\n        return \"jd123\";\n    }\n\n}  ",
  "sourcePath": "/Users/mawenbo/Desktop/erc20/contracts/ticket.sol",
  "compiler": {
    "name": "solc",
    "version": "0.4.24+commit.e67f0147.Emscripten.clang"
  },
  "schemaVersion": "2.0.0",
  "updatedAt": "2018-06-02T03:42:08.113Z"
}