{
  "contractName": "TokenDemo",
  "abi": [
    {
      "constant": true,
      "inputs": [],
      "name": "name",
      "outputs": [
        {
          "name": "",
          "type": "string"
        }
      ],
      "payable": false,
      "stateMutability": "view",
      "type": "function"
    },
    {
      "constant": true,
      "inputs": [],
      "name": "totalSupply",
      "outputs": [
        {
          "name": "",
          "type": "uint256"
        }
      ],
      "payable": false,
      "stateMutability": "view",
      "type": "function"
    },
    {
      "constant": true,
      "inputs": [],
      "name": "decimals",
      "outputs": [
        {
          "name": "",
          "type": "uint8"
        }
      ],
      "payable": false,
      "stateMutability": "view",
      "type": "function"
    },
    {
      "constant": true,
      "inputs": [],
      "name": "symbol",
      "outputs": [
        {
          "name": "",
          "type": "string"
        }
      ],
      "payable": false,
      "stateMutability": "view",
      "type": "function"
    },
    {
      "inputs": [
        {
          "name": "_initialAmount",
          "type": "uint256"
        },
        {
          "name": "_tokenName",
          "type": "string"
        },
        {
          "name": "_decimalUnits",
          "type": "uint8"
        },
        {
          "name": "_tokenSymbol",
          "type": "string"
        }
      ],
      "payable": false,
      "stateMutability": "nonpayable",
      "type": "constructor"
    },
    {
      "anonymous": false,
      "inputs": [
        {
          "indexed": true,
          "name": "_from",
          "type": "address"
        },
        {
          "indexed": true,
          "name": "_to",
          "type": "address"
        },
        {
          "indexed": false,
          "name": "_value",
          "type": "uint256"
        }
      ],
      "name": "Transfer",
      "type": "event"
    },
    {
      "anonymous": false,
      "inputs": [
        {
          "indexed": true,
          "name": "_owner",
          "type": "address"
        },
        {
          "indexed": true,
          "name": "_spender",
          "type": "address"
        },
        {
          "indexed": false,
          "name": "_value",
          "type": "uint256"
        }
      ],
      "name": "Approval",
      "type": "event"
    },
    {
      "constant": false,
      "inputs": [
        {
          "name": "_to",
          "type": "address"
        },
        {
          "name": "_value",
          "type": "uint256"
        }
      ],
      "name": "transfer",
      "outputs": [
        {
          "name": "success",
          "type": "bool"
        }
      ],
      "payable": false,
      "stateMutability": "nonpayable",
      "type": "function"
    },
    {
      "constant": false,
      "inputs": [
        {
          "name": "_from",
          "type": "address"
        },
        {
          "name": "_to",
          "type": "address"
        },
        {
          "name": "_value",
          "type": "uint256"
        }
      ],
      "name": "transferFrom",
      "outputs": [
        {
          "name": "success",
          "type": "bool"
        }
      ],
      "payable": false,
      "stateMutability": "nonpayable",
      "type": "function"
    },
    {
      "constant": true,
      "inputs": [
        {
          "name": "_owner",
          "type": "address"
        }
      ],
      "name": "balanceOf",
      "outputs": [
        {
          "name": "balance",
          "type": "uint256"
        }
      ],
      "payable": false,
      "stateMutability": "view",
      "type": "function"
    },
    {
      "constant": false,
      "inputs": [
        {
          "name": "_spender",
          "type": "address"
        },
        {
          "name": "_value",
          "type": "uint256"
        }
      ],
      "name": "approve",
      "outputs": [
        {
          "name": "success",
          "type": "bool"
        }
      ],
      "payable": false,
      "stateMutability": "nonpayable",
      "type": "function"
    },
    {
      "constant": true,
      "inputs": [
        {
          "name": "_owner",
          "type": "address"
        },
        {
          "name": "_spender",
          "type": "address"
        }
      ],
      "name": "allowance",
      "outputs": [
        {
          "name": "remaining",
          "type": "uint256"
        }
      ],
      "payable": false,
      "stateMutability": "view",
      "type": "function"
    },
    {
      "constant": false,
      "inputs": [
        {
          "name": "_spender",
          "type": "address"
        },
        {
          "name": "_value",
          "type": "uint256"
        },
        {
          "name": "_extraData",
          "type": "bytes"
        }
      ],
      "name": "approveAndCall",
      "outputs": [
        {
          "name": "",
          "type": "string"
        }
      ],
      "payable": false,
      "stateMutability": "nonpayable",
      "type": "function"
    }
  ],
  "bytecode": "0x608060405234801561001057600080fd5b506040516200114838038062001148833981018060405281019080805190602001909291908051820192919060200180519060200190929190805182019291905050508160ff16600a0a8402600081905550600054600460003373ffffffffffffffffffffffffffffffffffffffff1673ffffffffffffffffffffffffffffffffffffffff1681526020019081526020016000208190555082600190805190602001906100be9291906100fa565b5081600260006101000a81548160ff021916908360ff16021790555080600390805190602001906100f09291906100fa565b505050505061019f565b828054600181600116156101000203166002900490600052602060002090601f016020900481019282601f1061013b57805160ff1916838001178555610169565b82800160010185558215610169579182015b8281111561016857825182559160200191906001019061014d565b5b509050610176919061017a565b5090565b61019c91905b80821115610198576000816000905550600101610180565b5090565b90565b610f9980620001af6000396000f3006080604052600436106100a4576000357c0100000000000000000000000000000000000000000000000000000000900463ffffffff16806306fdde03146100a9578063095ea7b31461013957806318160ddd1461019e57806323b872dd146101c9578063313ce5671461024e57806370a082311461027f57806395d89b41146102d6578063a9059cbb14610366578063cae9ca51146103cb578063dd62ed3e146104d7575b600080fd5b3480156100b557600080fd5b506100be61054e565b6040518080602001828103825283818151815260200191508051906020019080838360005b838110156100fe5780820151818401526020810190506100e3565b50505050905090810190601f16801561012b5780820380516001836020036101000a031916815260200191505b509250505060405180910390f35b34801561014557600080fd5b50610184600480360381019080803573ffffffffffffffffffffffffffffffffffffffff169060200190929190803590602001909291905050506105ec565b604051808215151515815260200191505060405180910390f35b3480156101aa57600080fd5b506101b36106de565b6040518082815260200191505060405180910390f35b3480156101d557600080fd5b50610234600480360381019080803573ffffffffffffffffffffffffffffffffffffffff169060200190929190803573ffffffffffffffffffffffffffffffffffffffff169060200190929190803590602001909291905050506106e4565b604051808215151515815260200191505060405180910390f35b34801561025a57600080fd5b506102636109de565b604051808260ff1660ff16815260200191505060405180910390f35b34801561028b57600080fd5b506102c0600480360381019080803573ffffffffffffffffffffffffffffffffffffffff1690602001909291905050506109f1565b6040518082815260200191505060405180910390f35b3480156102e257600080fd5b506102eb610a3a565b6040518080602001828103825283818151815260200191508051906020019080838360005b8381101561032b578082015181840152602081019050610310565b50505050905090810190601f1680156103585780820380516001836020036101000a031916815260200191505b509250505060405180910390f35b34801561037257600080fd5b506103b1600480360381019080803573ffffffffffffffffffffffffffffffffffffffff16906020019092919080359060200190929190505050610ad8565b604051808215151515815260200191505060405180910390f35b3480156103d757600080fd5b5061045c600480360381019080803573ffffffffffffffffffffffffffffffffffffffff16906020019092919080359060200190929190803590602001908201803590602001908080601f0160208091040260200160405190810160405280939291908181526020018383808284378201915050505050509192919290505050610ce5565b6040518080602001828103825283818151815260200191508051906020019080838360005b8381101561049c578082015181840152602081019050610481565b50505050905090810190601f1680156104c95780820380516001836020036101000a031916815260200191505b509250505060405180910390f35b3480156104e357600080fd5b50610538600480360381019080803573ffffffffffffffffffffffffffffffffffffffff169060200190929190803573ffffffffffffffffffffffffffffffffffffffff169060200190929190505050610ee6565b6040518082815260200191505060405180910390f35b60018054600181600116156101000203166002900480601f0160208091040260200160405190810160405280929190818152602001828054600181600116156101000203166002900480156105e45780601f106105b9576101008083540402835291602001916105e4565b820191906000526020600020905b8154815290600101906020018083116105c757829003601f168201915b505050505081565b600081600560003373ffffffffffffffffffffffffffffffffffffffff1673ffffffffffffffffffffffffffffffffffffffff16815260200190815260200160002060008573ffffffffffffffffffffffffffffffffffffffff1673ffffffffffffffffffffffffffffffffffffffff168152602001908152602001600020819055508273ffffffffffffffffffffffffffffffffffffffff163373ffffffffffffffffffffffffffffffffffffffff167f8c5be1e5ebec7d5bd14f71427d1e84f3dd0314c0f7b2291e5b200ac8c7c3b925846040518082815260200191505060405180910390a36001905092915050565b60005481565b600081600460008673ffffffffffffffffffffffffffffffffffffffff1673ffffffffffffffffffffffffffffffffffffffff16815260200190815260200160002054101580156107b1575081600560008673ffffffffffffffffffffffffffffffffffffffff1673ffffffffffffffffffffffffffffffffffffffff16815260200190815260200160002060003373ffffffffffffffffffffffffffffffffffffffff1673ffffffffffffffffffffffffffffffffffffffff1681526020019081526020016000205410155b15156107bc57600080fd5b600460008473ffffffffffffffffffffffffffffffffffffffff1673ffffffffffffffffffffffffffffffffffffffff1681526020019081526020016000205482600460008673ffffffffffffffffffffffffffffffffffffffff1673ffffffffffffffffffffffffffffffffffffffff168152602001908152602001600020540111151561084a57600080fd5b81600460008673ffffffffffffffffffffffffffffffffffffffff1673ffffffffffffffffffffffffffffffffffffffff1681526020019081526020016000206000828254039250508190555081600460008573ffffffffffffffffffffffffffffffffffffffff1673ffffffffffffffffffffffffffffffffffffffff1681526020019081526020016000206000828254019250508190555081600560008673ffffffffffffffffffffffffffffffffffffffff1673ffffffffffffffffffffffffffffffffffffffff16815260200190815260200160002060003373ffffffffffffffffffffffffffffffffffffffff1673ffffffffffffffffffffffffffffffffffffffff168152602001908152602001600020600082825403925050819055508273ffffffffffffffffffffffffffffffffffffffff168473ffffffffffffffffffffffffffffffffffffffff167fddf252ad1be2c89b69c2b068fc378daa952ba7f163c4a11628f55a4df523b3ef846040518082815260200191505060405180910390a3600190509392505050565b600260009054906101000a900460ff1681565b6000600460008373ffffffffffffffffffffffffffffffffffffffff1673ffffffffffffffffffffffffffffffffffffffff168152602001908152602001600020549050919050565b60038054600181600116156101000203166002900480601f016020809104026020016040519081016040528092919081815260200182805460018160011615610100020316600290048015610ad05780601f10610aa557610100808354040283529160200191610ad0565b820191906000526020600020905b815481529060010190602001808311610ab357829003601f168201915b505050505081565b6000808373ffffffffffffffffffffffffffffffffffffffff1614151515610aff57600080fd5b81600460003373ffffffffffffffffffffffffffffffffffffffff1673ffffffffffffffffffffffffffffffffffffffff1681526020019081526020016000205410151515610b4d57600080fd5b600460008473ffffffffffffffffffffffffffffffffffffffff1673ffffffffffffffffffffffffffffffffffffffff1681526020019081526020016000205482600460008673ffffffffffffffffffffffffffffffffffffffff1673ffffffffffffffffffffffffffffffffffffffff168152602001908152602001600020540110151515610bdc57600080fd5b81600460003373ffffffffffffffffffffffffffffffffffffffff1673ffffffffffffffffffffffffffffffffffffffff1681526020019081526020016000206000828254039250508190555081600460008573ffffffffffffffffffffffffffffffffffffffff1673ffffffffffffffffffffffffffffffffffffffff168152602001908152602001600020600082825401925050819055508273ffffffffffffffffffffffffffffffffffffffff163373ffffffffffffffffffffffffffffffffffffffff167fddf252ad1be2c89b69c2b068fc378daa952ba7f163c4a11628f55a4df523b3ef846040518082815260200191505060405180910390a36001905092915050565b606060006060859150610cf886866105ec565b15610edc578173ffffffffffffffffffffffffffffffffffffffff16638f4ffcb1338730886040518563ffffffff167c0100000000000000000000000000000000000000000000000000000000028152600401808573ffffffffffffffffffffffffffffffffffffffff1673ffffffffffffffffffffffffffffffffffffffff1681526020018481526020018373ffffffffffffffffffffffffffffffffffffffff1673ffffffffffffffffffffffffffffffffffffffff16815260200180602001828103825283818151815260200191508051906020019080838360005b83811015610df2578082015181840152602081019050610dd7565b50505050905090810190601f168015610e1f5780820380516001836020036101000a031916815260200191505b5095505050505050600060405180830381600087803b158015610e4157600080fd5b505af1158015610e55573d6000803e3d6000fd5b505050506040513d6000823e3d601f19601f820116820180604052506020811015610e7f57600080fd5b810190808051640100000000811115610e9757600080fd5b82810190506020810184811115610ead57600080fd5b8151856001820283011164010000000082111715610eca57600080fd5b50509291905050509050809250610edd565b5b50509392505050565b6000600560008473ffffffffffffffffffffffffffffffffffffffff1673ffffffffffffffffffffffffffffffffffffffff16815260200190815260200160002060008373ffffffffffffffffffffffffffffffffffffffff1673ffffffffffffffffffffffffffffffffffffffff168152602001908152602001600020549050929150505600a165627a7a72305820c1c353fa07bcc20926b1cfa04f33f2e74f69eed25adc79fb7b46640dd4533db40029",
  "source": "pragma solidity ^0.4.24;\n\n\n/**\n注意solidity的版本，设置为^0.4.24\napproveAndCall中，较新的版本才允许函数返回string\nturffle version，查看版本，Solidity应该大于等于v0.4.24 (solc-js)\n如果不是，需要升级truffle\nnpm i -g truffle，如果是mac，前面加sudo，win下管理员打开终端\n*/\ninterface TokenRecipient { \n    function receiveApproval(address _from, uint256 _value, address _token, bytes _extraData) external returns (string);\n}\n\n\n/**\n* 练习内容\n* 1 按照课程演示，熟悉ERC20的基本框架\n* 2 理解代理交易的流程，完成基本的ticket程序\n* 3 remix运行\n*/\ncontract Token {  \n    uint256 public totalSupply;  \n    function balanceOf(address _owner) public constant returns (uint256 balance);  \n    function transfer(address _to, uint256 _value) public returns (bool success);  \n    \n    function transferFrom(address _from, address _to, uint256 _value) public returns    (bool success);  \n    function approve(address _spender, uint256 _value) public returns (bool success);  \n    function allowance(address _owner, address _spender) public constant returns (uint256 remaining);  \n    \n    event Transfer(address indexed _from, address indexed _to, uint256 _value);  \n    event Approval(address indexed _owner, address indexed _spender, uint256  _value);  \n} \n\n\ncontract TokenDemo is Token {  \n    string public name;                   //名称，例如\"My test token\"  \n    uint8 public decimals;               //返回token使用的小数点后几位。比如如果设置为3，就是支持0.001表示.  \n    string public symbol;               //token简称,like MTT  \n\n    //用户的余额\n    mapping (address => uint256) balances;  \n\n    //代理的余额，一级key为甲方，二级key为代理，值为甲方给代理的额度\n    mapping (address => mapping (address => uint256)) allowed; \n    \n    //构造函数\n    function TokenDemo(uint256 _initialAmount, string _tokenName, uint8 _decimalUnits, string _tokenSymbol) public {  \n        totalSupply = _initialAmount * 10 ** uint256(_decimalUnits);\n        balances[msg.sender] = totalSupply;//合约创建者拥有所有的币\n        name = _tokenName;\n        decimals = _decimalUnits;\n        symbol = _tokenSymbol;\n    }  \n\n    //将自己的token转账给_to地址，_value为转账个数\n    function transfer(address _to, uint256 _value) public returns (bool success) {  \n        require(_to != 0x0);\n        require(balances[msg.sender] >= _value);  //有足够多的币\n        require(balances[_to] + _value >= balances[_to]);//防止溢出\n        balances[msg.sender] -= _value;//从消息发送者账户中减去token数量_value  \n        balances[_to] += _value;//往接收账户增加token数量_value  \n        Transfer(msg.sender, _to, _value);//触发转币交易事件  \n        return true;  \n    }  \n\n    //从地址_from发送数量为_value的token到地址_to\n    function transferFrom(address _from, address _to, uint256 _value) public returns (bool success) {  \n        require(balances[_from] >= _value && allowed[_from][msg.sender] >= _value);\n        require(balances[_to] + _value > balances[_to]);//防止溢出\n        balances[_from] -= _value;\n        balances[_to] += _value;\n        allowed[_from][msg.sender] -= _value;\n        Transfer(_from, _to, _value);//触发转币交易事件  \n        return true;  \n    } \n\n    //输入地址，可以获取该地址代币的余额\n    function balanceOf(address _owner) public constant returns (uint256 balance) {  \n        return balances[_owner];  \n    }  \n\n    //批准_spender账户从自己的账户转移_value个token。可以分多次转移\n    function approve(address _spender, uint256 _value) public returns (bool success)     \n    {   \n        allowed[msg.sender][_spender] = _value;\n        Approval(msg.sender, _spender, _value);  \n        return true;  \n    } \n     \n    //返回_spender还能提取token的个数\n    function allowance(address _owner, address _spender) public constant returns (uint256 remaining) {  \n        return allowed[_owner][_spender];//允许_spender从_owner中转出的token数  \n    }  \n\n    //_spender为卖票合约地址\n    function approveAndCall(address _spender, uint256 _value, bytes _extraData)\n        public\n        returns (string) {\n            TokenRecipient spender = TokenRecipient(_spender);\n            if (approve(_spender, _value)) {\n                string memory ticket = spender.receiveApproval(msg.sender, _value, this, _extraData);\n                return ticket;\n            }\n        }\n}  ",
  "sourcePath": "/Users/mawenbo/Desktop/erc20/contracts/TokenDemo.sol",
  "compiler": {
    "name": "solc",
    "version": "0.4.24+commit.e67f0147.Emscripten.clang"
  },
  "schemaVersion": "2.0.0",
  "updatedAt": "2018-06-02T03:42:08.108Z"
}